{
  "_format": "hh-sol-artifact-1",
  "contractName": "Voting",
  "sourceName": "contracts/Voting.sol",
  "abi": [
    {
      "inputs": [
        {
          "internalType": "string",
          "name": "_electionId",
          "type": "string"
        },
        {
          "internalType": "string[]",
          "name": "candidateNames",
          "type": "string[]"
        },
        {
          "internalType": "uint256[]",
          "name": "voteCounts",
          "type": "uint256[]"
        }
      ],
      "stateMutability": "nonpayable",
      "type": "constructor"
    },
    {
      "anonymous": false,
      "inputs": [
        {
          "indexed": false,
          "internalType": "string",
          "name": "name",
          "type": "string"
        },
        {
          "indexed": false,
          "internalType": "uint256",
          "name": "votes",
          "type": "uint256"
        },
        {
          "indexed": false,
          "internalType": "uint256",
          "name": "timestamp",
          "type": "uint256"
        }
      ],
      "name": "CandidateAdded",
      "type": "event"
    },
    {
      "anonymous": false,
      "inputs": [
        {
          "indexed": true,
          "internalType": "address",
          "name": "voter",
          "type": "address"
        },
        {
          "indexed": false,
          "internalType": "string",
          "name": "candidateName",
          "type": "string"
        },
        {
          "indexed": false,
          "internalType": "uint256",
          "name": "timestamp",
          "type": "uint256"
        }
      ],
      "name": "VoteCasted",
      "type": "event"
    },
    {
      "anonymous": false,
      "inputs": [
        {
          "indexed": false,
          "internalType": "string[]",
          "name": "winnerNames",
          "type": "string[]"
        },
        {
          "indexed": false,
          "internalType": "uint256",
          "name": "votes",
          "type": "uint256"
        },
        {
          "indexed": false,
          "internalType": "uint256",
          "name": "timestamp",
          "type": "uint256"
        }
      ],
      "name": "VotingEnded",
      "type": "event"
    },
    {
      "inputs": [
        {
          "internalType": "string",
          "name": "name",
          "type": "string"
        }
      ],
      "name": "addCandidate",
      "outputs": [],
      "stateMutability": "nonpayable",
      "type": "function"
    },
    {
      "inputs": [],
      "name": "admin",
      "outputs": [
        {
          "internalType": "address",
          "name": "",
          "type": "address"
        }
      ],
      "stateMutability": "view",
      "type": "function"
    },
    {
      "inputs": [
        {
          "internalType": "uint256",
          "name": "",
          "type": "uint256"
        }
      ],
      "name": "candidates",
      "outputs": [
        {
          "internalType": "string",
          "name": "name",
          "type": "string"
        },
        {
          "internalType": "uint256",
          "name": "votes",
          "type": "uint256"
        }
      ],
      "stateMutability": "view",
      "type": "function"
    },
    {
      "inputs": [],
      "name": "electionId",
      "outputs": [
        {
          "internalType": "string",
          "name": "",
          "type": "string"
        }
      ],
      "stateMutability": "view",
      "type": "function"
    },
    {
      "inputs": [],
      "name": "endVoting",
      "outputs": [],
      "stateMutability": "nonpayable",
      "type": "function"
    },
    {
      "inputs": [],
      "name": "getAdmin",
      "outputs": [
        {
          "internalType": "address",
          "name": "",
          "type": "address"
        }
      ],
      "stateMutability": "view",
      "type": "function"
    },
    {
      "inputs": [],
      "name": "getCandidates",
      "outputs": [
        {
          "components": [
            {
              "internalType": "string",
              "name": "name",
              "type": "string"
            },
            {
              "internalType": "uint256",
              "name": "votes",
              "type": "uint256"
            }
          ],
          "internalType": "struct Voting.Candidate[]",
          "name": "",
          "type": "tuple[]"
        }
      ],
      "stateMutability": "view",
      "type": "function"
    },
    {
      "inputs": [],
      "name": "getElectionId",
      "outputs": [
        {
          "internalType": "string",
          "name": "",
          "type": "string"
        }
      ],
      "stateMutability": "view",
      "type": "function"
    },
    {
      "inputs": [],
      "name": "getWinners",
      "outputs": [
        {
          "internalType": "string[]",
          "name": "",
          "type": "string[]"
        }
      ],
      "stateMutability": "view",
      "type": "function"
    },
    {
      "inputs": [
        {
          "internalType": "address",
          "name": "",
          "type": "address"
        }
      ],
      "name": "hasVoted",
      "outputs": [
        {
          "internalType": "bool",
          "name": "",
          "type": "bool"
        }
      ],
      "stateMutability": "view",
      "type": "function"
    },
    {
      "inputs": [],
      "name": "highestVoteCount",
      "outputs": [
        {
          "internalType": "uint256",
          "name": "",
          "type": "uint256"
        }
      ],
      "stateMutability": "view",
      "type": "function"
    },
    {
      "inputs": [
        {
          "internalType": "uint256",
          "name": "",
          "type": "uint256"
        }
      ],
      "name": "leadingCandidates",
      "outputs": [
        {
          "internalType": "uint256",
          "name": "",
          "type": "uint256"
        }
      ],
      "stateMutability": "view",
      "type": "function"
    },
    {
      "inputs": [
        {
          "internalType": "uint256",
          "name": "candidateIndex",
          "type": "uint256"
        }
      ],
      "name": "vote",
      "outputs": [],
      "stateMutability": "nonpayable",
      "type": "function"
    },
    {
      "inputs": [],
      "name": "votingEnded",
      "outputs": [
        {
          "internalType": "bool",
          "name": "",
          "type": "bool"
        }
      ],
      "stateMutability": "view",
      "type": "function"
    }
  ],
  "bytecode": "0x608060405234801561001057600080fd5b50604051612947380380612947833981810160405281019061003291906106c2565b8051825114610076576040517f08c379a000000000000000000000000000000000000000000000000000000000815260040161006d906107c6565b60405180910390fd5b33600260006101000a81548173ffffffffffffffffffffffffffffffffffffffff021916908373ffffffffffffffffffffffffffffffffffffffff16021790555082600390816100c691906109fd565b5060005b82518110156102fb5760008382815181106100e8576100e7610acf565b5b60200260200101515111610131576040517f08c379a000000000000000000000000000000000000000000000000000000000815260040161012890610b4a565b60405180910390fd5b6001604051806040016040528085848151811061015157610150610acf565b5b6020026020010151815260200184848151811061017157610170610acf565b5b6020026020010151815250908060018154018082558091505060019003906000526020600020906002020160009091909190915060008201518160000190816101ba91906109fd565b506020820151816001015550506004548282815181106101dd576101dc610acf565b5b60200260200101511115610231578181815181106101fe576101fd610acf565b5b6020026020010151600481905550604051806020016040528082815250600590600161022b929190610304565b5061027f565b60045482828151811061024757610246610acf565b5b60200260200101510361027e5760058190806001815401808255809150506001900390600052602060002001600090919091909150555b5b7f3afe6ad627492103504cd95049ed4c003eb858931291151e9e72e7aba869ecc08382815181106102b3576102b2610acf565b5b60200260200101518383815181106102ce576102cd610acf565b5b6020026020010151426040516102e693929190610bb2565b60405180910390a180806001019150506100ca565b50505050610bf0565b828054828255906000526020600020908101928215610340579160200282015b8281111561033f578251825591602001919060010190610324565b5b50905061034d9190610351565b5090565b5b8082111561036a576000816000905550600101610352565b5090565b6000604051905090565b600080fd5b600080fd5b600080fd5b600080fd5b6000601f19601f8301169050919050565b7f4e487b7100000000000000000000000000000000000000000000000000000000600052604160045260246000fd5b6103d58261038c565b810181811067ffffffffffffffff821117156103f4576103f361039d565b5b80604052505050565b600061040761036e565b905061041382826103cc565b919050565b600067ffffffffffffffff8211156104335761043261039d565b5b61043c8261038c565b9050602081019050919050565b60005b8381101561046757808201518184015260208101905061044c565b60008484015250505050565b600061048661048184610418565b6103fd565b9050828152602081018484840111156104a2576104a1610387565b5b6104ad848285610449565b509392505050565b600082601f8301126104ca576104c9610382565b5b81516104da848260208601610473565b91505092915050565b600067ffffffffffffffff8211156104fe576104fd61039d565b5b602082029050602081019050919050565b600080fd5b6000610527610522846104e3565b6103fd565b9050808382526020820190506020840283018581111561054a5761054961050f565b5b835b8181101561059157805167ffffffffffffffff81111561056f5761056e610382565b5b80860161057c89826104b5565b8552602085019450505060208101905061054c565b5050509392505050565b600082601f8301126105b0576105af610382565b5b81516105c0848260208601610514565b91505092915050565b600067ffffffffffffffff8211156105e4576105e361039d565b5b602082029050602081019050919050565b6000819050919050565b610608816105f5565b811461061357600080fd5b50565b600081519050610625816105ff565b92915050565b600061063e610639846105c9565b6103fd565b905080838252602082019050602084028301858111156106615761066061050f565b5b835b8181101561068a57806106768882610616565b845260208401935050602081019050610663565b5050509392505050565b600082601f8301126106a9576106a8610382565b5b81516106b984826020860161062b565b91505092915050565b6000806000606084860312156106db576106da610378565b5b600084015167ffffffffffffffff8111156106f9576106f861037d565b5b610705868287016104b5565b935050602084015167ffffffffffffffff8111156107265761072561037d565b5b6107328682870161059b565b925050604084015167ffffffffffffffff8111156107535761075261037d565b5b61075f86828701610694565b9150509250925092565b600082825260208201905092915050565b7f4d69736d61746368656420696e70757420617272617973000000000000000000600082015250565b60006107b0601783610769565b91506107bb8261077a565b602082019050919050565b600060208201905081810360008301526107df816107a3565b9050919050565b600081519050919050565b7f4e487b7100000000000000000000000000000000000000000000000000000000600052602260045260246000fd5b6000600282049050600182168061083857607f821691505b60208210810361084b5761084a6107f1565b5b50919050565b60008190508160005260206000209050919050565b60006020601f8301049050919050565b600082821b905092915050565b6000600883026108b37fffffffffffffffffffffffffffffffffffffffffffffffffffffffffffffffff82610876565b6108bd8683610876565b95508019841693508086168417925050509392505050565b6000819050919050565b60006108fa6108f56108f0846105f5565b6108d5565b6105f5565b9050919050565b6000819050919050565b610914836108df565b61092861092082610901565b848454610883565b825550505050565b600090565b61093d610930565b61094881848461090b565b505050565b5b8181101561096c57610961600082610935565b60018101905061094e565b5050565b601f8211156109b15761098281610851565b61098b84610866565b8101602085101561099a578190505b6109ae6109a685610866565b83018261094d565b50505b505050565b600082821c905092915050565b60006109d4600019846008026109b6565b1980831691505092915050565b60006109ed83836109c3565b9150826002028217905092915050565b610a06826107e6565b67ffffffffffffffff811115610a1f57610a1e61039d565b5b610a298254610820565b610a34828285610970565b600060209050601f831160018114610a675760008415610a55578287015190505b610a5f85826109e1565b865550610ac7565b601f198416610a7586610851565b60005b82811015610a9d57848901518255600182019150602085019450602081019050610a78565b86831015610aba5784890151610ab6601f8916826109c3565b8355505b6001600288020188555050505b505050505050565b7f4e487b7100000000000000000000000000000000000000000000000000000000600052603260045260246000fd5b7f43616e646964617465206e616d652063616e6e6f7420626520656d7074790000600082015250565b6000610b34601e83610769565b9150610b3f82610afe565b602082019050919050565b60006020820190508181036000830152610b6381610b27565b9050919050565b6000610b75826107e6565b610b7f8185610769565b9350610b8f818560208601610449565b610b988161038c565b840191505092915050565b610bac816105f5565b82525050565b60006060820190508181036000830152610bcc8186610b6a565b9050610bdb6020830185610ba3565b610be86040830184610ba3565b949350505050565b611d4880610bff6000396000f3fe608060405234801561001057600080fd5b50600436106100ea5760003560e01c806377cf01f21161008c578063c3403ddf11610066578063c3403ddf1461023c578063ca4ab70e14610246578063df15c37e14610276578063f851a44014610294576100ea565b806377cf01f2146101e25780639ce06762146102005780639d5a05291461021e576100ea565b806309eef43e116100c857806309eef43e146101475780633477ee2e14610177578063462e91ec146101a85780636e9960c3146101c4576100ea565b80630121b93f146100ef578063051364d41461010b57806306a49fce14610129575b600080fd5b61010960048036038101906101049190610f89565b6102b2565b005b61011361053a565b6040516101209190611046565b60405180910390f35b6101316105c8565b60405161013e91906111c0565b60405180910390f35b610161600480360381019061015c9190611240565b6106c3565b60405161016e9190611288565b60405180910390f35b610191600480360381019061018c9190610f89565b6106e3565b60405161019f9291906112b2565b60405180910390f35b6101c260048036038101906101bd9190611417565b61079f565b005b6101cc610965565b6040516101d9919061146f565b60405180910390f35b6101ea61098f565b6040516101f79190611046565b60405180910390f35b610208610a21565b604051610215919061148a565b60405180910390f35b610226610a27565b6040516102339190611288565b60405180910390f35b610244610a3a565b005b610260600480360381019061025b9190610f89565b610cd4565b60405161026d919061148a565b60405180910390f35b61027e610cf8565b60405161028b9190611567565b60405180910390f35b61029c610eaf565b6040516102a9919061146f565b60405180910390f35b600260149054906101000a900460ff1615610302576040517f08c379a00000000000000000000000000000000000000000000000000000000081526004016102f9906115d5565b60405180910390fd5b6000803373ffffffffffffffffffffffffffffffffffffffff1673ffffffffffffffffffffffffffffffffffffffff16815260200190815260200160002060009054906101000a900460ff161561038e576040517f08c379a000000000000000000000000000000000000000000000000000000000815260040161038590611641565b60405180910390fd5b60018054905081106103d5576040517f08c379a00000000000000000000000000000000000000000000000000000000081526004016103cc906116ad565b60405180910390fd5b60016000803373ffffffffffffffffffffffffffffffffffffffff1673ffffffffffffffffffffffffffffffffffffffff16815260200190815260200160002060006101000a81548160ff021916908315150217905550600060018281548110610442576104416116cd565b5b906000526020600020906002020190506001816001016000828254610467919061172b565b92505081905550600454816001015411156104ac57806001015460048190555060405180602001604052808381525060059060016104a6929190610ed5565b506104e4565b6004548160010154036104e35760058290806001815401808255809150506001900390600052602060002001600090919091909150555b5b3373ffffffffffffffffffffffffffffffffffffffff167e089c14bef1f215ec2a9cac0041a8a539033590f2ac7424e2f5659c48a08503826000014260405161052e929190611858565b60405180910390a25050565b600380546105479061178e565b80601f01602080910402602001604051908101604052809291908181526020018280546105739061178e565b80156105c05780601f10610595576101008083540402835291602001916105c0565b820191906000526020600020905b8154815290600101906020018083116105a357829003601f168201915b505050505081565b60606001805480602002602001604051908101604052809291908181526020016000905b828210156106ba578382906000526020600020906002020160405180604001604052908160008201805461061f9061178e565b80601f016020809104026020016040519081016040528092919081815260200182805461064b9061178e565b80156106985780601f1061066d57610100808354040283529160200191610698565b820191906000526020600020905b81548152906001019060200180831161067b57829003601f168201915b50505050508152602001600182015481525050815260200190600101906105ec565b50505050905090565b60006020528060005260406000206000915054906101000a900460ff1681565b600181815481106106f357600080fd5b90600052602060002090600202016000915090508060000180546107169061178e565b80601f01602080910402602001604051908101604052809291908181526020018280546107429061178e565b801561078f5780601f106107645761010080835404028352916020019161078f565b820191906000526020600020905b81548152906001019060200180831161077257829003601f168201915b5050505050908060010154905082565b600260009054906101000a900473ffffffffffffffffffffffffffffffffffffffff1673ffffffffffffffffffffffffffffffffffffffff163373ffffffffffffffffffffffffffffffffffffffff161461082f576040517f08c379a0000000000000000000000000000000000000000000000000000000008152600401610826906118fa565b60405180910390fd5b600260149054906101000a900460ff161561087f576040517f08c379a0000000000000000000000000000000000000000000000000000000008152600401610876906115d5565b60405180910390fd5b60008151116108c3576040517f08c379a00000000000000000000000000000000000000000000000000000000081526004016108ba90611966565b60405180910390fd5b600160405180604001604052808381526020016000815250908060018154018082558091505060019003906000526020600020906002020160009091909190915060008201518160000190816109199190611b1d565b506020820151816001015550507f3afe6ad627492103504cd95049ed4c003eb858931291151e9e72e7aba869ecc08160004260405161095a93929190611c2a565b60405180910390a150565b6000600260009054906101000a900473ffffffffffffffffffffffffffffffffffffffff16905090565b60606003805461099e9061178e565b80601f01602080910402602001604051908101604052809291908181526020018280546109ca9061178e565b8015610a175780601f106109ec57610100808354040283529160200191610a17565b820191906000526020600020905b8154815290600101906020018083116109fa57829003601f168201915b5050505050905090565b60045481565b600260149054906101000a900460ff1681565b600260009054906101000a900473ffffffffffffffffffffffffffffffffffffffff1673ffffffffffffffffffffffffffffffffffffffff163373ffffffffffffffffffffffffffffffffffffffff1614610aca576040517f08c379a0000000000000000000000000000000000000000000000000000000008152600401610ac1906118fa565b60405180910390fd5b600260149054906101000a900460ff1615610b1a576040517f08c379a0000000000000000000000000000000000000000000000000000000008152600401610b11906115d5565b60405180910390fd5b6001600260146101000a81548160ff021916908315150217905550600060058054905067ffffffffffffffff811115610b5657610b556112ec565b5b604051908082528060200260200182016040528015610b8957816020015b6060815260200190600190039081610b745790505b50905060005b600580549050811015610c9357600160058281548110610bb257610bb16116cd565b5b906000526020600020015481548110610bce57610bcd6116cd565b5b90600052602060002090600202016000018054610bea9061178e565b80601f0160208091040260200160405190810160405280929190818152602001828054610c169061178e565b8015610c635780601f10610c3857610100808354040283529160200191610c63565b820191906000526020600020905b815481529060010190602001808311610c4657829003601f168201915b5050505050828281518110610c7b57610c7a6116cd565b5b60200260200101819052508080600101915050610b8f565b507fb0724b8ddb820a77d8ffa1268533da70a5efc85b5f78ee46318ab4574e0b4eed8160045442604051610cc993929190611c68565b60405180910390a150565b60058181548110610ce457600080fd5b906000526020600020016000915090505481565b6060600260149054906101000a900460ff16610d49576040517f08c379a0000000000000000000000000000000000000000000000000000000008152600401610d4090611cf2565b60405180910390fd5b600060058054905067ffffffffffffffff811115610d6a57610d696112ec565b5b604051908082528060200260200182016040528015610d9d57816020015b6060815260200190600190039081610d885790505b50905060005b600580549050811015610ea757600160058281548110610dc657610dc56116cd565b5b906000526020600020015481548110610de257610de16116cd565b5b90600052602060002090600202016000018054610dfe9061178e565b80601f0160208091040260200160405190810160405280929190818152602001828054610e2a9061178e565b8015610e775780601f10610e4c57610100808354040283529160200191610e77565b820191906000526020600020905b815481529060010190602001808311610e5a57829003601f168201915b5050505050828281518110610e8f57610e8e6116cd565b5b60200260200101819052508080600101915050610da3565b508091505090565b600260009054906101000a900473ffffffffffffffffffffffffffffffffffffffff1681565b828054828255906000526020600020908101928215610f11579160200282015b82811115610f10578251825591602001919060010190610ef5565b5b509050610f1e9190610f22565b5090565b5b80821115610f3b576000816000905550600101610f23565b5090565b6000604051905090565b600080fd5b600080fd5b6000819050919050565b610f6681610f53565b8114610f7157600080fd5b50565b600081359050610f8381610f5d565b92915050565b600060208284031215610f9f57610f9e610f49565b5b6000610fad84828501610f74565b91505092915050565b600081519050919050565b600082825260208201905092915050565b60005b83811015610ff0578082015181840152602081019050610fd5565b60008484015250505050565b6000601f19601f8301169050919050565b600061101882610fb6565b6110228185610fc1565b9350611032818560208601610fd2565b61103b81610ffc565b840191505092915050565b60006020820190508181036000830152611060818461100d565b905092915050565b600081519050919050565b600082825260208201905092915050565b6000819050602082019050919050565b600082825260208201905092915050565b60006110b082610fb6565b6110ba8185611094565b93506110ca818560208601610fd2565b6110d381610ffc565b840191505092915050565b6110e781610f53565b82525050565b6000604083016000830151848203600086015261110a82826110a5565b915050602083015161111f60208601826110de565b508091505092915050565b600061113683836110ed565b905092915050565b6000602082019050919050565b600061115682611068565b6111608185611073565b93508360208202850161117285611084565b8060005b858110156111ae578484038952815161118f858261112a565b945061119a8361113e565b925060208a01995050600181019050611176565b50829750879550505050505092915050565b600060208201905081810360008301526111da818461114b565b905092915050565b600073ffffffffffffffffffffffffffffffffffffffff82169050919050565b600061120d826111e2565b9050919050565b61121d81611202565b811461122857600080fd5b50565b60008135905061123a81611214565b92915050565b60006020828403121561125657611255610f49565b5b60006112648482850161122b565b91505092915050565b60008115159050919050565b6112828161126d565b82525050565b600060208201905061129d6000830184611279565b92915050565b6112ac81610f53565b82525050565b600060408201905081810360008301526112cc818561100d565b90506112db60208301846112a3565b9392505050565b600080fd5b600080fd5b7f4e487b7100000000000000000000000000000000000000000000000000000000600052604160045260246000fd5b61132482610ffc565b810181811067ffffffffffffffff82111715611343576113426112ec565b5b80604052505050565b6000611356610f3f565b9050611362828261131b565b919050565b600067ffffffffffffffff821115611382576113816112ec565b5b61138b82610ffc565b9050602081019050919050565b82818337600083830152505050565b60006113ba6113b584611367565b61134c565b9050828152602081018484840111156113d6576113d56112e7565b5b6113e1848285611398565b509392505050565b600082601f8301126113fe576113fd6112e2565b5b813561140e8482602086016113a7565b91505092915050565b60006020828403121561142d5761142c610f49565b5b600082013567ffffffffffffffff81111561144b5761144a610f4e565b5b611457848285016113e9565b91505092915050565b61146981611202565b82525050565b60006020820190506114846000830184611460565b92915050565b600060208201905061149f60008301846112a3565b92915050565b600081519050919050565b600082825260208201905092915050565b6000819050602082019050919050565b60006114dd83836110a5565b905092915050565b6000602082019050919050565b60006114fd826114a5565b61150781856114b0565b935083602082028501611519856114c1565b8060005b85811015611555578484038952815161153685826114d1565b9450611541836114e5565b925060208a0199505060018101905061151d565b50829750879550505050505092915050565b6000602082019050818103600083015261158181846114f2565b905092915050565b7f566f74696e672068617320616c726561647920656e6465640000000000000000600082015250565b60006115bf601883610fc1565b91506115ca82611589565b602082019050919050565b600060208201905081810360008301526115ee816115b2565b9050919050565b7f596f75206861766520616c726561647920766f74656421000000000000000000600082015250565b600061162b601783610fc1565b9150611636826115f5565b602082019050919050565b6000602082019050818103600083015261165a8161161e565b9050919050565b7f496e76616c69642063616e64696461746520696e646578210000000000000000600082015250565b6000611697601883610fc1565b91506116a282611661565b602082019050919050565b600060208201905081810360008301526116c68161168a565b9050919050565b7f4e487b7100000000000000000000000000000000000000000000000000000000600052603260045260246000fd5b7f4e487b7100000000000000000000000000000000000000000000000000000000600052601160045260246000fd5b600061173682610f53565b915061174183610f53565b9250828201905080821115611759576117586116fc565b5b92915050565b7f4e487b7100000000000000000000000000000000000000000000000000000000600052602260045260246000fd5b600060028204905060018216806117a657607f821691505b6020821081036117b9576117b861175f565b5b50919050565b60008190508160005260206000209050919050565b600081546117e18161178e565b6117eb8186610fc1565b94506001821660008114611806576001811461181c5761184f565b60ff19831686528115156020028601935061184f565b611825856117bf565b60005b8381101561184757815481890152600182019150602081019050611828565b808801955050505b50505092915050565b6000604082019050818103600083015261187281856117d4565b905061188160208301846112a3565b9392505050565b7f4f6e6c79207468652061646d696e2063616e20706572666f726d20746869732060008201527f616374696f6e0000000000000000000000000000000000000000000000000000602082015250565b60006118e4602683610fc1565b91506118ef82611888565b604082019050919050565b60006020820190508181036000830152611913816118d7565b9050919050565b7f43616e646964617465206e616d652063616e6e6f7420626520656d7074790000600082015250565b6000611950601e83610fc1565b915061195b8261191a565b602082019050919050565b6000602082019050818103600083015261197f81611943565b9050919050565b60006020601f8301049050919050565b600082821b905092915050565b6000600883026119d37fffffffffffffffffffffffffffffffffffffffffffffffffffffffffffffffff82611996565b6119dd8683611996565b95508019841693508086168417925050509392505050565b6000819050919050565b6000611a1a611a15611a1084610f53565b6119f5565b610f53565b9050919050565b6000819050919050565b611a34836119ff565b611a48611a4082611a21565b8484546119a3565b825550505050565b600090565b611a5d611a50565b611a68818484611a2b565b505050565b5b81811015611a8c57611a81600082611a55565b600181019050611a6e565b5050565b601f821115611ad157611aa2816117bf565b611aab84611986565b81016020851015611aba578190505b611ace611ac685611986565b830182611a6d565b50505b505050565b600082821c905092915050565b6000611af460001984600802611ad6565b1980831691505092915050565b6000611b0d8383611ae3565b9150826002028217905092915050565b611b2682610fb6565b67ffffffffffffffff811115611b3f57611b3e6112ec565b5b611b49825461178e565b611b54828285611a90565b600060209050601f831160018114611b875760008415611b75578287015190505b611b7f8582611b01565b865550611be7565b601f198416611b95866117bf565b60005b82811015611bbd57848901518255600182019150602085019450602081019050611b98565b86831015611bda5784890151611bd6601f891682611ae3565b8355505b6001600288020188555050505b505050505050565b6000819050919050565b6000611c14611c0f611c0a84611bef565b6119f5565b610f53565b9050919050565b611c2481611bf9565b82525050565b60006060820190508181036000830152611c44818661100d565b9050611c536020830185611c1b565b611c6060408301846112a3565b949350505050565b60006060820190508181036000830152611c8281866114f2565b9050611c9160208301856112a3565b611c9e60408301846112a3565b949350505050565b7f566f74696e67206973207374696c6c206f6e676f696e67000000000000000000600082015250565b6000611cdc601783610fc1565b9150611ce782611ca6565b602082019050919050565b60006020820190508181036000830152611d0b81611ccf565b905091905056fea2646970667358221220b215a41d9141479a6367d3d46ded9cd17055f90af873534e8ef6b453b8f5363664736f6c634300081b0033",
  "linkReferences": {},
  "deployedLinkReferences": {}
}